{
  "contractName": "MyKlayNFT",
  "abi": [
    {
      "inputs": [],
      "stateMutability": "nonpayable",
      "type": "constructor"
    },
    {
      "anonymous": false,
      "inputs": [
        {
          "indexed": true,
          "internalType": "address",
          "name": "owner",
          "type": "address"
        },
        {
          "indexed": true,
          "internalType": "address",
          "name": "operator",
          "type": "address"
        },
        {
          "indexed": false,
          "internalType": "bool",
          "name": "approved",
          "type": "bool"
        }
      ],
      "name": "ApprovalForAll",
      "type": "event"
    },
    {
      "anonymous": false,
      "inputs": [
        {
          "indexed": true,
          "internalType": "address",
          "name": "operator",
          "type": "address"
        },
        {
          "indexed": true,
          "internalType": "address",
          "name": "from",
          "type": "address"
        },
        {
          "indexed": true,
          "internalType": "address",
          "name": "to",
          "type": "address"
        },
        {
          "indexed": false,
          "internalType": "uint256[]",
          "name": "ids",
          "type": "uint256[]"
        },
        {
          "indexed": false,
          "internalType": "uint256[]",
          "name": "amounts",
          "type": "uint256[]"
        }
      ],
      "name": "TransferBatch",
      "type": "event"
    },
    {
      "anonymous": false,
      "inputs": [
        {
          "indexed": true,
          "internalType": "address",
          "name": "operator",
          "type": "address"
        },
        {
          "indexed": true,
          "internalType": "address",
          "name": "from",
          "type": "address"
        },
        {
          "indexed": true,
          "internalType": "address",
          "name": "to",
          "type": "address"
        },
        {
          "indexed": false,
          "internalType": "uint256",
          "name": "id",
          "type": "uint256"
        },
        {
          "indexed": false,
          "internalType": "uint256",
          "name": "amount",
          "type": "uint256"
        }
      ],
      "name": "TransferSingle",
      "type": "event"
    },
    {
      "anonymous": false,
      "inputs": [
        {
          "indexed": false,
          "internalType": "string",
          "name": "value",
          "type": "string"
        },
        {
          "indexed": true,
          "internalType": "uint256",
          "name": "id",
          "type": "uint256"
        }
      ],
      "name": "URI",
      "type": "event"
    },
    {
      "inputs": [],
      "name": "TOKEN",
      "outputs": [
        {
          "internalType": "uint256",
          "name": "",
          "type": "uint256"
        }
      ],
      "stateMutability": "view",
      "type": "function",
      "constant": true
    },
    {
      "inputs": [
        {
          "internalType": "address",
          "name": "owner",
          "type": "address"
        },
        {
          "internalType": "uint256",
          "name": "id",
          "type": "uint256"
        }
      ],
      "name": "balanceOf",
      "outputs": [
        {
          "internalType": "uint256",
          "name": "",
          "type": "uint256"
        }
      ],
      "stateMutability": "view",
      "type": "function",
      "constant": true
    },
    {
      "inputs": [
        {
          "internalType": "address[]",
          "name": "owners",
          "type": "address[]"
        },
        {
          "internalType": "uint256[]",
          "name": "ids",
          "type": "uint256[]"
        }
      ],
      "name": "balanceOfBatch",
      "outputs": [
        {
          "internalType": "uint256[]",
          "name": "",
          "type": "uint256[]"
        }
      ],
      "stateMutability": "view",
      "type": "function",
      "constant": true
    },
    {
      "inputs": [
        {
          "internalType": "address",
          "name": "owner",
          "type": "address"
        },
        {
          "internalType": "address",
          "name": "operator",
          "type": "address"
        }
      ],
      "name": "isApprovedForAll",
      "outputs": [
        {
          "internalType": "bool",
          "name": "",
          "type": "bool"
        }
      ],
      "stateMutability": "view",
      "type": "function",
      "constant": true
    },
    {
      "inputs": [
        {
          "internalType": "address",
          "name": "from",
          "type": "address"
        },
        {
          "internalType": "address",
          "name": "to",
          "type": "address"
        },
        {
          "internalType": "uint256[]",
          "name": "ids",
          "type": "uint256[]"
        },
        {
          "internalType": "uint256[]",
          "name": "amounts",
          "type": "uint256[]"
        },
        {
          "internalType": "bytes",
          "name": "data",
          "type": "bytes"
        }
      ],
      "name": "safeBatchTransferFrom",
      "outputs": [],
      "stateMutability": "nonpayable",
      "type": "function"
    },
    {
      "inputs": [
        {
          "internalType": "address",
          "name": "from",
          "type": "address"
        },
        {
          "internalType": "address",
          "name": "to",
          "type": "address"
        },
        {
          "internalType": "uint256",
          "name": "id",
          "type": "uint256"
        },
        {
          "internalType": "uint256",
          "name": "amount",
          "type": "uint256"
        },
        {
          "internalType": "bytes",
          "name": "data",
          "type": "bytes"
        }
      ],
      "name": "safeTransferFrom",
      "outputs": [],
      "stateMutability": "nonpayable",
      "type": "function"
    },
    {
      "inputs": [
        {
          "internalType": "address",
          "name": "operator",
          "type": "address"
        },
        {
          "internalType": "bool",
          "name": "approved",
          "type": "bool"
        }
      ],
      "name": "setApprovalForAll",
      "outputs": [],
      "stateMutability": "nonpayable",
      "type": "function"
    },
    {
      "inputs": [
        {
          "internalType": "bytes4",
          "name": "interfaceId",
          "type": "bytes4"
        }
      ],
      "name": "supportsInterface",
      "outputs": [
        {
          "internalType": "bool",
          "name": "",
          "type": "bool"
        }
      ],
      "stateMutability": "view",
      "type": "function",
      "constant": true
    },
    {
      "inputs": [
        {
          "internalType": "uint256",
          "name": "",
          "type": "uint256"
        }
      ],
      "name": "uri",
      "outputs": [
        {
          "internalType": "string",
          "name": "",
          "type": "string"
        }
      ],
      "stateMutability": "view",
      "type": "function",
      "constant": true
    }
  ],
  "bytecode": "0x60806040523480156200001157600080fd5b506040518060600160405280602781526020016200339e602791396200003d816200007060201b60201c565b506200006a336000670de0b6b3a7640000604051806020016040528060008152506200008c60201b60201c565b62000c11565b806002908051906020019062000088929190620006a8565b5050565b600073ffffffffffffffffffffffffffffffffffffffff168473ffffffffffffffffffffffffffffffffffffffff161415620000ff576040517f08c379a0000000000000000000000000000000000000000000000000000000008152600401620000f690620008d8565b60405180910390fd5b6000620001116200027460201b60201c565b9050600062000126856200027c60201b60201c565b905060006200013b856200027c60201b60201c565b90506200015483600089858589620002fd60201b60201c565b8460008088815260200190815260200160002060008973ffffffffffffffffffffffffffffffffffffffff1673ffffffffffffffffffffffffffffffffffffffff1681526020019081526020016000206000828254620001b5919062000954565b925050819055508673ffffffffffffffffffffffffffffffffffffffff16600073ffffffffffffffffffffffffffffffffffffffff168473ffffffffffffffffffffffffffffffffffffffff167fc3d58168c5ae7397731d063d5bbf3d657854427343f4c083240f7aacaa2d0f62898960405162000235929190620008fa565b60405180910390a462000254836000898585896200030560201b60201c565b6200026b836000898989896200030d60201b60201c565b50505050505050565b600033905090565b60606000600167ffffffffffffffff8111156200029e576200029d62000b14565b5b604051908082528060200260200182016040528015620002cd5781602001602082028036833780820191505090505b5090508281600081518110620002e857620002e762000ae5565b5b60200260200101818152505080915050919050565b505050505050565b505050505050565b620003238686868686866200038b60201b60201c565b80620003415750620003408686868686866200050860201b60201c565b5b62000383576040517f08c379a00000000000000000000000000000000000000000000000000000000081526004016200037a90620008b6565b60405180910390fd5b505050505050565b6000620003b98573ffffffffffffffffffffffffffffffffffffffff166200068560201b620007421760201c565b15620004f9578473ffffffffffffffffffffffffffffffffffffffff1663e78b332588888787876040518663ffffffff1660e01b81526004016200040295949392919062000852565b602060405180830381600087803b1580156200041d57600080fd5b505af19250505080156200045157506040513d601f19601f820116820180604052508101906200044e91906200076f565b60015b620004a8573d806000811462000484576040519150601f19603f3d011682016040523d82523d6000602084013e62000489565b606091505b50600081511415620004a0576000915050620004fe565b805181602001fd5b63e78b332560e01b7bffffffffffffffffffffffffffffffffffffffffffffffffffffffff1916817bffffffffffffffffffffffffffffffffffffffffffffffffffffffff191614915050620004fe565b600190505b9695505050505050565b6000620005368573ffffffffffffffffffffffffffffffffffffffff166200068560201b620007421760201c565b1562000676578473ffffffffffffffffffffffffffffffffffffffff1663f23a6e6188888787876040518663ffffffff1660e01b81526004016200057f95949392919062000852565b602060405180830381600087803b1580156200059a57600080fd5b505af1925050508015620005ce57506040513d601f19601f82011682018060405250810190620005cb91906200076f565b60015b62000625573d806000811462000601576040519150601f19603f3d011682016040523d82523d6000602084013e62000606565b606091505b506000815114156200061d5760009150506200067b565b805181602001fd5b63f23a6e6160e01b7bffffffffffffffffffffffffffffffffffffffffffffffffffffffff1916817bffffffffffffffffffffffffffffffffffffffffffffffffffffffff1916149150506200067b565b600190505b9695505050505050565b6000808273ffffffffffffffffffffffffffffffffffffffff163b119050919050565b828054620006b69062000a51565b90600052602060002090601f016020900481019282620006da576000855562000726565b82601f10620006f557805160ff191683800117855562000726565b8280016001018555821562000726579182015b828111156200072557825182559160200191906001019062000708565b5b50905062000735919062000739565b5090565b5b80821115620007545760008160009055506001016200073a565b5090565b600081519050620007698162000bf7565b92915050565b60006020828403121562000788576200078762000b43565b5b6000620007988482850162000758565b91505092915050565b620007ac81620009b1565b82525050565b6000620007bf8262000927565b620007cb818562000932565b9350620007dd81856020860162000a1b565b620007e88162000b48565b840191505092915050565b60006200080260428362000943565b91506200080f8262000b59565b606082019050919050565b600062000829601f8362000943565b9150620008368262000bce565b602082019050919050565b6200084c8162000a11565b82525050565b600060a082019050620008696000830188620007a1565b620008786020830187620007a1565b62000887604083018662000841565b62000896606083018562000841565b8181036080830152620008aa8184620007b2565b90509695505050505050565b60006020820190508181036000830152620008d181620007f3565b9050919050565b60006020820190508181036000830152620008f3816200081a565b9050919050565b600060408201905062000911600083018562000841565b62000920602083018462000841565b9392505050565b600081519050919050565b600082825260208201905092915050565b600082825260208201905092915050565b6000620009618262000a11565b91506200096e8362000a11565b9250827fffffffffffffffffffffffffffffffffffffffffffffffffffffffffffffffff03821115620009a657620009a562000a87565b5b828201905092915050565b6000620009be82620009f1565b9050919050565b60007fffffffff0000000000000000000000000000000000000000000000000000000082169050919050565b600073ffffffffffffffffffffffffffffffffffffffff82169050919050565b6000819050919050565b60005b8381101562000a3b57808201518184015260208101905062000a1e565b8381111562000a4b576000848401525b50505050565b6000600282049050600182168062000a6a57607f821691505b6020821081141562000a815762000a8062000ab6565b5b50919050565b7f4e487b7100000000000000000000000000000000000000000000000000000000600052601160045260246000fd5b7f4e487b7100000000000000000000000000000000000000000000000000000000600052602260045260246000fd5b7f4e487b7100000000000000000000000000000000000000000000000000000000600052603260045260246000fd5b7f4e487b7100000000000000000000000000000000000000000000000000000000600052604160045260246000fd5b600080fd5b6000601f19601f8301169050919050565b7f4b495033373a207472616e7366657220746f206e6f6e20494b4950333752656360008201527f65697665722f4945524331313535526563656976657220696d706c656d656e7460208201527f6572000000000000000000000000000000000000000000000000000000000000604082015250565b7f4b495033373a206d696e7420746f20746865207a65726f206164647265737300600082015250565b62000c0281620009c5565b811462000c0e57600080fd5b50565b61277d8062000c216000396000f3fe608060405234801561001057600080fd5b50600436106100925760003560e01c80634e1273f4116100665780634e1273f41461014357806382bfefc814610173578063a22cb46514610191578063e985e9c5146101ad578063f242432a146101dd57610092565b8062fdd58e1461009757806301ffc9a7146100c75780630e89341c146100f75780632eb2c2d614610127575b600080fd5b6100b160048036038101906100ac91906119e7565b6101f9565b6040516100be9190611ffd565b60405180910390f35b6100e160048036038101906100dc9190611a9f565b6102c2565b6040516100ee9190611ea0565b60405180910390f35b610111600480360381019061010c9190611af9565b6103a4565b60405161011e9190611ebb565b60405180910390f35b610141600480360381019061013c9190611841565b610438565b005b61015d60048036038101906101589190611a27565b6104d9565b60405161016a9190611e47565b60405180910390f35b61017b6105f2565b6040516101889190611ffd565b60405180910390f35b6101ab60048036038101906101a691906119a7565b6105f7565b005b6101c760048036038101906101c29190611801565b61060d565b6040516101d49190611ea0565b60405180910390f35b6101f760048036038101906101f29190611910565b6106a1565b005b60008073ffffffffffffffffffffffffffffffffffffffff168373ffffffffffffffffffffffffffffffffffffffff16141561026a576040517f08c379a000000000000000000000000000000000000000000000000000000000815260040161026190611edd565b60405180910390fd5b60008083815260200190815260200160002060008473ffffffffffffffffffffffffffffffffffffffff1673ffffffffffffffffffffffffffffffffffffffff16815260200190815260200160002054905092915050565b60007fd9b67a26000000000000000000000000000000000000000000000000000000007bffffffffffffffffffffffffffffffffffffffffffffffffffffffff1916827bffffffffffffffffffffffffffffffffffffffffffffffffffffffff1916148061038d57507f0e89341c000000000000000000000000000000000000000000000000000000007bffffffffffffffffffffffffffffffffffffffffffffffffffffffff1916827bffffffffffffffffffffffffffffffffffffffffffffffffffffffff1916145b8061039d575061039c82610765565b5b9050919050565b6060600280546103b39061226c565b80601f01602080910402602001604051908101604052809291908181526020018280546103df9061226c565b801561042c5780601f106104015761010080835404028352916020019161042c565b820191906000526020600020905b81548152906001019060200180831161040f57829003601f168201915b50505050509050919050565b6104406107cf565b73ffffffffffffffffffffffffffffffffffffffff168573ffffffffffffffffffffffffffffffffffffffff1614806104865750610485856104806107cf565b61060d565b5b6104c5576040517f08c379a00000000000000000000000000000000000000000000000000000000081526004016104bc90611f5d565b60405180910390fd5b6104d285858585856107d7565b5050505050565b6060815183511461051f576040517f08c379a000000000000000000000000000000000000000000000000000000000815260040161051690611efd565b60405180910390fd5b6000835167ffffffffffffffff81111561053c5761053b6123a5565b5b60405190808252806020026020018201604052801561056a5781602001602082028036833780820191505090505b50905060005b84518110156105e7576105b785828151811061058f5761058e612376565b5b60200260200101518583815181106105aa576105a9612376565b5b60200260200101516101f9565b8282815181106105ca576105c9612376565b5b602002602001018181525050806105e0906122cf565b9050610570565b508091505092915050565b600081565b6106096106026107cf565b8383610af9565b5050565b6000600160008473ffffffffffffffffffffffffffffffffffffffff1673ffffffffffffffffffffffffffffffffffffffff16815260200190815260200160002060008373ffffffffffffffffffffffffffffffffffffffff1673ffffffffffffffffffffffffffffffffffffffff16815260200190815260200160002060009054906101000a900460ff16905092915050565b6106a96107cf565b73ffffffffffffffffffffffffffffffffffffffff168573ffffffffffffffffffffffffffffffffffffffff1614806106ef57506106ee856106e96107cf565b61060d565b5b61072e576040517f08c379a000000000000000000000000000000000000000000000000000000000815260040161072590611fbd565b60405180910390fd5b61073b8585858585610c66565b5050505050565b6000808273ffffffffffffffffffffffffffffffffffffffff163b119050919050565b60007f01ffc9a7000000000000000000000000000000000000000000000000000000007bffffffffffffffffffffffffffffffffffffffffffffffffffffffff1916827bffffffffffffffffffffffffffffffffffffffffffffffffffffffff1916149050919050565b600033905090565b815183511461081b576040517f08c379a000000000000000000000000000000000000000000000000000000000815260040161081290611f3d565b60405180910390fd5b600073ffffffffffffffffffffffffffffffffffffffff168473ffffffffffffffffffffffffffffffffffffffff16141561088b576040517f08c379a000000000000000000000000000000000000000000000000000000000815260040161088290611fdd565b60405180910390fd5b60006108956107cf565b90506108a5818787878787610f02565b60005b8451811015610a565760008582815181106108c6576108c5612376565b5b6020026020010151905060008583815181106108e5576108e4612376565b5b60200260200101519050600080600084815260200190815260200160002060008b73ffffffffffffffffffffffffffffffffffffffff1673ffffffffffffffffffffffffffffffffffffffff16815260200190815260200160002054905081811015610986576040517f08c379a000000000000000000000000000000000000000000000000000000000815260040161097d90611f7d565b60405180910390fd5b81810360008085815260200190815260200160002060008c73ffffffffffffffffffffffffffffffffffffffff1673ffffffffffffffffffffffffffffffffffffffff168152602001908152602001600020819055508160008085815260200190815260200160002060008b73ffffffffffffffffffffffffffffffffffffffff1673ffffffffffffffffffffffffffffffffffffffff1681526020019081526020016000206000828254610a3b9190612160565b9250508190555050505080610a4f906122cf565b90506108a8565b508473ffffffffffffffffffffffffffffffffffffffff168673ffffffffffffffffffffffffffffffffffffffff168273ffffffffffffffffffffffffffffffffffffffff167f4a39dc06d4c0dbc64b70af90fd698a233a518aa5d07e595d983b8c0526c8f7fb8787604051610acd929190611e69565b60405180910390a4610ae3818787878787610f0a565b610af1818787878787610f12565b505050505050565b8173ffffffffffffffffffffffffffffffffffffffff168373ffffffffffffffffffffffffffffffffffffffff161415610b68576040517f08c379a0000000000000000000000000000000000000000000000000000000008152600401610b5f90611f9d565b60405180910390fd5b80600160008573ffffffffffffffffffffffffffffffffffffffff1673ffffffffffffffffffffffffffffffffffffffff16815260200190815260200160002060008473ffffffffffffffffffffffffffffffffffffffff1673ffffffffffffffffffffffffffffffffffffffff16815260200190815260200160002060006101000a81548160ff0219169083151502179055508173ffffffffffffffffffffffffffffffffffffffff168373ffffffffffffffffffffffffffffffffffffffff167f17307eab39ab6107e8899845ad3d59bd9653f200f220920489ca2b5937696c3183604051610c599190611ea0565b60405180910390a3505050565b600073ffffffffffffffffffffffffffffffffffffffff168473ffffffffffffffffffffffffffffffffffffffff161415610cd6576040517f08c379a0000000000000000000000000000000000000000000000000000000008152600401610ccd90611fdd565b60405180910390fd5b6000610ce06107cf565b90506000610ced85610f7c565b90506000610cfa85610f7c565b9050610d0a838989858589610f02565b600080600088815260200190815260200160002060008a73ffffffffffffffffffffffffffffffffffffffff1673ffffffffffffffffffffffffffffffffffffffff16815260200190815260200160002054905085811015610da1576040517f08c379a0000000000000000000000000000000000000000000000000000000008152600401610d9890611f7d565b60405180910390fd5b85810360008089815260200190815260200160002060008b73ffffffffffffffffffffffffffffffffffffffff1673ffffffffffffffffffffffffffffffffffffffff168152602001908152602001600020819055508560008089815260200190815260200160002060008a73ffffffffffffffffffffffffffffffffffffffff1673ffffffffffffffffffffffffffffffffffffffff1681526020019081526020016000206000828254610e569190612160565b925050819055508773ffffffffffffffffffffffffffffffffffffffff168973ffffffffffffffffffffffffffffffffffffffff168573ffffffffffffffffffffffffffffffffffffffff167fc3d58168c5ae7397731d063d5bbf3d657854427343f4c083240f7aacaa2d0f628a8a604051610ed3929190612018565b60405180910390a4610ee9848a8a86868a610f0a565b610ef7848a8a8a8a8a610ff6565b505050505050505050565b505050505050565b505050505050565b610f20868686868686611060565b80610f355750610f348686868686866111c3565b5b610f74576040517f08c379a0000000000000000000000000000000000000000000000000000000008152600401610f6b90611f1d565b60405180910390fd5b505050505050565b60606000600167ffffffffffffffff811115610f9b57610f9a6123a5565b5b604051908082528060200260200182016040528015610fc95781602001602082028036833780820191505090505b5090508281600081518110610fe157610fe0612376565b5b60200260200101818152505080915050919050565b611004868686868686611326565b806110195750611018868686868686611489565b5b611058576040517f08c379a000000000000000000000000000000000000000000000000000000000815260040161104f90611f1d565b60405180910390fd5b505050505050565b60006110818573ffffffffffffffffffffffffffffffffffffffff16610742565b156111b4578473ffffffffffffffffffffffffffffffffffffffff16639b49e33288888787876040518663ffffffff1660e01b81526004016110c7959493929190611d85565b602060405180830381600087803b1580156110e157600080fd5b505af192505050801561111257506040513d601f19601f8201168201806040525081019061110f9190611acc565b60015b611164573d8060008114611142576040519150601f19603f3d011682016040523d82523d6000602084013e611147565b606091505b5060008151141561115c5760009150506111b9565b805181602001fd5b639b49e33260e01b7bffffffffffffffffffffffffffffffffffffffffffffffffffffffff1916817bffffffffffffffffffffffffffffffffffffffffffffffffffffffff1916149150506111b9565b600190505b9695505050505050565b60006111e48573ffffffffffffffffffffffffffffffffffffffff16610742565b15611317578473ffffffffffffffffffffffffffffffffffffffff1663bc197c8188888787876040518663ffffffff1660e01b815260040161122a959493929190611d85565b602060405180830381600087803b15801561124457600080fd5b505af192505050801561127557506040513d601f19601f820116820180604052508101906112729190611acc565b60015b6112c7573d80600081146112a5576040519150601f19603f3d011682016040523d82523d6000602084013e6112aa565b606091505b506000815114156112bf57600091505061131c565b805181602001fd5b63bc197c8160e01b7bffffffffffffffffffffffffffffffffffffffffffffffffffffffff1916817bffffffffffffffffffffffffffffffffffffffffffffffffffffffff19161491505061131c565b600190505b9695505050505050565b60006113478573ffffffffffffffffffffffffffffffffffffffff16610742565b1561147a578473ffffffffffffffffffffffffffffffffffffffff1663e78b332588888787876040518663ffffffff1660e01b815260040161138d959493929190611ded565b602060405180830381600087803b1580156113a757600080fd5b505af19250505080156113d857506040513d601f19601f820116820180604052508101906113d59190611acc565b60015b61142a573d8060008114611408576040519150601f19603f3d011682016040523d82523d6000602084013e61140d565b606091505b5060008151141561142257600091505061147f565b805181602001fd5b63e78b332560e01b7bffffffffffffffffffffffffffffffffffffffffffffffffffffffff1916817bffffffffffffffffffffffffffffffffffffffffffffffffffffffff19161491505061147f565b600190505b9695505050505050565b60006114aa8573ffffffffffffffffffffffffffffffffffffffff16610742565b156115dd578473ffffffffffffffffffffffffffffffffffffffff1663f23a6e6188888787876040518663ffffffff1660e01b81526004016114f0959493929190611ded565b602060405180830381600087803b15801561150a57600080fd5b505af192505050801561153b57506040513d601f19601f820116820180604052508101906115389190611acc565b60015b61158d573d806000811461156b576040519150601f19603f3d011682016040523d82523d6000602084013e611570565b606091505b506000815114156115855760009150506115e2565b805181602001fd5b63f23a6e6160e01b7bffffffffffffffffffffffffffffffffffffffffffffffffffffffff1916817bffffffffffffffffffffffffffffffffffffffffffffffffffffffff1916149150506115e2565b600190505b9695505050505050565b60006115ff6115fa84612066565b612041565b90508083825260208201905082856020860282011115611622576116216123d9565b5b60005b858110156116525781611638888261170e565b845260208401935060208301925050600181019050611625565b5050509392505050565b600061166f61166a84612092565b612041565b90508083825260208201905082856020860282011115611692576116916123d9565b5b60005b858110156116c257816116a888826117ec565b845260208401935060208301925050600181019050611695565b5050509392505050565b60006116df6116da846120be565b612041565b9050828152602081018484840111156116fb576116fa6123de565b5b61170684828561222a565b509392505050565b60008135905061171d816126eb565b92915050565b600082601f830112611738576117376123d4565b5b81356117488482602086016115ec565b91505092915050565b600082601f830112611766576117656123d4565b5b813561177684826020860161165c565b91505092915050565b60008135905061178e81612702565b92915050565b6000813590506117a381612719565b92915050565b6000815190506117b881612719565b92915050565b600082601f8301126117d3576117d26123d4565b5b81356117e38482602086016116cc565b91505092915050565b6000813590506117fb81612730565b92915050565b60008060408385031215611818576118176123e8565b5b60006118268582860161170e565b92505060206118378582860161170e565b9150509250929050565b600080600080600060a0868803121561185d5761185c6123e8565b5b600061186b8882890161170e565b955050602061187c8882890161170e565b945050604086013567ffffffffffffffff81111561189d5761189c6123e3565b5b6118a988828901611751565b935050606086013567ffffffffffffffff8111156118ca576118c96123e3565b5b6118d688828901611751565b925050608086013567ffffffffffffffff8111156118f7576118f66123e3565b5b611903888289016117be565b9150509295509295909350565b600080600080600060a0868803121561192c5761192b6123e8565b5b600061193a8882890161170e565b955050602061194b8882890161170e565b945050604061195c888289016117ec565b935050606061196d888289016117ec565b925050608086013567ffffffffffffffff81111561198e5761198d6123e3565b5b61199a888289016117be565b9150509295509295909350565b600080604083850312156119be576119bd6123e8565b5b60006119cc8582860161170e565b92505060206119dd8582860161177f565b9150509250929050565b600080604083850312156119fe576119fd6123e8565b5b6000611a0c8582860161170e565b9250506020611a1d858286016117ec565b9150509250929050565b60008060408385031215611a3e57611a3d6123e8565b5b600083013567ffffffffffffffff811115611a5c57611a5b6123e3565b5b611a6885828601611723565b925050602083013567ffffffffffffffff811115611a8957611a886123e3565b5b611a9585828601611751565b9150509250929050565b600060208284031215611ab557611ab46123e8565b5b6000611ac384828501611794565b91505092915050565b600060208284031215611ae257611ae16123e8565b5b6000611af0848285016117a9565b91505092915050565b600060208284031215611b0f57611b0e6123e8565b5b6000611b1d848285016117ec565b91505092915050565b6000611b328383611d67565b60208301905092915050565b611b47816121b6565b82525050565b6000611b58826120ff565b611b62818561212d565b9350611b6d836120ef565b8060005b83811015611b9e578151611b858882611b26565b9750611b9083612120565b925050600181019050611b71565b5085935050505092915050565b611bb4816121c8565b82525050565b6000611bc58261210a565b611bcf818561213e565b9350611bdf818560208601612239565b611be8816123ed565b840191505092915050565b6000611bfe82612115565b611c08818561214f565b9350611c18818560208601612239565b611c21816123ed565b840191505092915050565b6000611c3960288361214f565b9150611c44826123fe565b604082019050919050565b6000611c5c60258361214f565b9150611c678261244d565b604082019050919050565b6000611c7f60428361214f565b9150611c8a8261249c565b606082019050919050565b6000611ca260268361214f565b9150611cad82612511565b604082019050919050565b6000611cc560308361214f565b9150611cd082612560565b604082019050919050565b6000611ce860288361214f565b9150611cf3826125af565b604082019050919050565b6000611d0b60278361214f565b9150611d16826125fe565b604082019050919050565b6000611d2e60278361214f565b9150611d398261264d565b604082019050919050565b6000611d5160238361214f565b9150611d5c8261269c565b604082019050919050565b611d7081612220565b82525050565b611d7f81612220565b82525050565b600060a082019050611d9a6000830188611b3e565b611da76020830187611b3e565b8181036040830152611db98186611b4d565b90508181036060830152611dcd8185611b4d565b90508181036080830152611de18184611bba565b90509695505050505050565b600060a082019050611e026000830188611b3e565b611e0f6020830187611b3e565b611e1c6040830186611d76565b611e296060830185611d76565b8181036080830152611e3b8184611bba565b90509695505050505050565b60006020820190508181036000830152611e618184611b4d565b905092915050565b60006040820190508181036000830152611e838185611b4d565b90508181036020830152611e978184611b4d565b90509392505050565b6000602082019050611eb56000830184611bab565b92915050565b60006020820190508181036000830152611ed58184611bf3565b905092915050565b60006020820190508181036000830152611ef681611c2c565b9050919050565b60006020820190508181036000830152611f1681611c4f565b9050919050565b60006020820190508181036000830152611f3681611c72565b9050919050565b60006020820190508181036000830152611f5681611c95565b9050919050565b60006020820190508181036000830152611f7681611cb8565b9050919050565b60006020820190508181036000830152611f9681611cdb565b9050919050565b60006020820190508181036000830152611fb681611cfe565b9050919050565b60006020820190508181036000830152611fd681611d21565b9050919050565b60006020820190508181036000830152611ff681611d44565b9050919050565b60006020820190506120126000830184611d76565b92915050565b600060408201905061202d6000830185611d76565b61203a6020830184611d76565b9392505050565b600061204b61205c565b9050612057828261229e565b919050565b6000604051905090565b600067ffffffffffffffff821115612081576120806123a5565b5b602082029050602081019050919050565b600067ffffffffffffffff8211156120ad576120ac6123a5565b5b602082029050602081019050919050565b600067ffffffffffffffff8211156120d9576120d86123a5565b5b6120e2826123ed565b9050602081019050919050565b6000819050602082019050919050565b600081519050919050565b600081519050919050565b600081519050919050565b6000602082019050919050565b600082825260208201905092915050565b600082825260208201905092915050565b600082825260208201905092915050565b600061216b82612220565b915061217683612220565b9250827fffffffffffffffffffffffffffffffffffffffffffffffffffffffffffffffff038211156121ab576121aa612318565b5b828201905092915050565b60006121c182612200565b9050919050565b60008115159050919050565b60007fffffffff0000000000000000000000000000000000000000000000000000000082169050919050565b600073ffffffffffffffffffffffffffffffffffffffff82169050919050565b6000819050919050565b82818337600083830152505050565b60005b8381101561225757808201518184015260208101905061223c565b83811115612266576000848401525b50505050565b6000600282049050600182168061228457607f821691505b6020821081141561229857612297612347565b5b50919050565b6122a7826123ed565b810181811067ffffffffffffffff821117156122c6576122c56123a5565b5b80604052505050565b60006122da82612220565b91507fffffffffffffffffffffffffffffffffffffffffffffffffffffffffffffffff82141561230d5761230c612318565b5b600182019050919050565b7f4e487b7100000000000000000000000000000000000000000000000000000000600052601160045260246000fd5b7f4e487b7100000000000000000000000000000000000000000000000000000000600052602260045260246000fd5b7f4e487b7100000000000000000000000000000000000000000000000000000000600052603260045260246000fd5b7f4e487b7100000000000000000000000000000000000000000000000000000000600052604160045260246000fd5b600080fd5b600080fd5b600080fd5b600080fd5b600080fd5b6000601f19601f8301169050919050565b7f4b495033373a2061646472657373207a65726f206973206e6f7420612076616c60008201527f6964206f776e6572000000000000000000000000000000000000000000000000602082015250565b7f4b495033373a206f776e65727320616e6420696473206c656e677468206d697360008201527f6d61746368000000000000000000000000000000000000000000000000000000602082015250565b7f4b495033373a207472616e7366657220746f206e6f6e20494b4950333752656360008201527f65697665722f4945524331313535526563656976657220696d706c656d656e7460208201527f6572000000000000000000000000000000000000000000000000000000000000604082015250565b7f4b495033373a2069647320616e6420616d6f756e7473206c656e677468206d6960008201527f736d617463680000000000000000000000000000000000000000000000000000602082015250565b7f4b495033373a207472616e736665722063616c6c6572206973206e6f74206f7760008201527f6e6572206e6f7220617070726f76656400000000000000000000000000000000602082015250565b7f4b495033373a20696e73756666696369656e742062616c616e636520666f722060008201527f7472616e73666572000000000000000000000000000000000000000000000000602082015250565b7f4b495033373a2073657474696e6720617070726f76616c20737461747573206660008201527f6f722073656c6600000000000000000000000000000000000000000000000000602082015250565b7f4b495033373a2063616c6c6572206973206e6f74206f776e6572206e6f72206160008201527f7070726f76656400000000000000000000000000000000000000000000000000602082015250565b7f4b495033373a207472616e7366657220746f20746865207a65726f206164647260008201527f6573730000000000000000000000000000000000000000000000000000000000602082015250565b6126f4816121b6565b81146126ff57600080fd5b50565b61270b816121c8565b811461271657600080fd5b50565b612722816121d4565b811461272d57600080fd5b50565b61273981612220565b811461274457600080fd5b5056fea2646970667358221220bbf4d6e57302c65d67827a78126d279cfa1220a39cdbe6bd0bedbaea0dfc473d64736f6c6343000806003368747470733a2f2f67616d652e6578616d706c652f6170692f6974656d2f7b69647d2e6a736f6e",
  "immutableReferences": {},
  "source": "// contracts/GameItems.sol\n// SPDX-License-Identifier: MIT\npragma solidity ^0.8.6;\n\nimport \"../node_modules/@klaytn/contracts/KIP/token/KIP37/KIP37.sol\";\n\ncontract MyKlayNFT is KIP37 {\n    uint256 public constant TOKEN = 0;\n\n    constructor() KIP37(\"https://game.example/api/item/{id}.json\") {\n        _mint(msg.sender, TOKEN, 10**18, \"\");\n    }\n}",
  "sourcePath": "/Users/dj/Desktop/5Node/web3-test/ethers-test/truffle/contracts/MyKlayNFT.sol",
  "compiler": {
    "name": "solc",
    "version": "0.8.6+commit.11564f7e.Emscripten.clang"
  },
  "schemaVersion": "3.4.6",
  "updatedAt": "2022-07-06T12:50:29.754Z",
  "networkType": "ethereum",
  "devdoc": {
    "kind": "dev",
    "methods": {
      "balanceOf(address,uint256)": {
        "details": "See {IKIP37-balanceOf}. Requirements: - `owner` cannot be the zero address."
      },
      "balanceOfBatch(address[],uint256[])": {
        "details": "See {IKIP37-balanceOfBatch}. Requirements: - `owners` and `ids` must have the same length."
      },
      "isApprovedForAll(address,address)": {
        "details": "See {IKIP37-isApprovedForAll}."
      },
      "safeBatchTransferFrom(address,address,uint256[],uint256[],bytes)": {
        "details": "See {IKIP37-safeBatchTransferFrom}."
      },
      "safeTransferFrom(address,address,uint256,uint256,bytes)": {
        "details": "See {IKIP37-safeTransferFrom}."
      },
      "setApprovalForAll(address,bool)": {
        "details": "See {IKIP37-setApprovalForAll}."
      },
      "supportsInterface(bytes4)": {
        "details": "See {IKIP13-supportsInterface}."
      },
      "uri(uint256)": {
        "details": "See {IKIP37Metadata-uri}. This implementation returns the same URI for *all* token types. It relies on the token type ID substitution mechanism http://kips.klaytn.com/KIPs/kip-37#metadata-extension[defined in the KIP]. Clients calling this function must replace the `\\{id\\}` substring with the actual token type ID."
      }
    },
    "version": 1
  },
  "userdoc": {
    "kind": "user",
    "methods": {},
    "version": 1
  }
}