{
  "contractName": "MyNFT",
  "abi": [
    {
      "inputs": [],
      "stateMutability": "nonpayable",
      "type": "constructor"
    },
    {
      "anonymous": false,
      "inputs": [
        {
          "indexed": true,
          "internalType": "address",
          "name": "owner",
          "type": "address"
        },
        {
          "indexed": true,
          "internalType": "address",
          "name": "approved",
          "type": "address"
        },
        {
          "indexed": true,
          "internalType": "uint256",
          "name": "tokenId",
          "type": "uint256"
        }
      ],
      "name": "Approval",
      "type": "event"
    },
    {
      "anonymous": false,
      "inputs": [
        {
          "indexed": true,
          "internalType": "address",
          "name": "owner",
          "type": "address"
        },
        {
          "indexed": true,
          "internalType": "address",
          "name": "operator",
          "type": "address"
        },
        {
          "indexed": false,
          "internalType": "bool",
          "name": "approved",
          "type": "bool"
        }
      ],
      "name": "ApprovalForAll",
      "type": "event"
    },
    {
      "anonymous": false,
      "inputs": [
        {
          "indexed": true,
          "internalType": "address",
          "name": "previousOwner",
          "type": "address"
        },
        {
          "indexed": true,
          "internalType": "address",
          "name": "newOwner",
          "type": "address"
        }
      ],
      "name": "OwnershipTransferred",
      "type": "event"
    },
    {
      "anonymous": false,
      "inputs": [
        {
          "indexed": true,
          "internalType": "address",
          "name": "from",
          "type": "address"
        },
        {
          "indexed": true,
          "internalType": "address",
          "name": "to",
          "type": "address"
        },
        {
          "indexed": true,
          "internalType": "uint256",
          "name": "tokenId",
          "type": "uint256"
        }
      ],
      "name": "Transfer",
      "type": "event"
    },
    {
      "inputs": [
        {
          "internalType": "address",
          "name": "to",
          "type": "address"
        },
        {
          "internalType": "uint256",
          "name": "tokenId",
          "type": "uint256"
        }
      ],
      "name": "approve",
      "outputs": [],
      "stateMutability": "nonpayable",
      "type": "function"
    },
    {
      "inputs": [
        {
          "internalType": "address",
          "name": "owner",
          "type": "address"
        }
      ],
      "name": "balanceOf",
      "outputs": [
        {
          "internalType": "uint256",
          "name": "",
          "type": "uint256"
        }
      ],
      "stateMutability": "view",
      "type": "function",
      "constant": true
    },
    {
      "inputs": [
        {
          "internalType": "uint256",
          "name": "tokenId",
          "type": "uint256"
        }
      ],
      "name": "getApproved",
      "outputs": [
        {
          "internalType": "address",
          "name": "",
          "type": "address"
        }
      ],
      "stateMutability": "view",
      "type": "function",
      "constant": true
    },
    {
      "inputs": [
        {
          "internalType": "address",
          "name": "owner",
          "type": "address"
        },
        {
          "internalType": "address",
          "name": "operator",
          "type": "address"
        }
      ],
      "name": "isApprovedForAll",
      "outputs": [
        {
          "internalType": "bool",
          "name": "",
          "type": "bool"
        }
      ],
      "stateMutability": "view",
      "type": "function",
      "constant": true
    },
    {
      "inputs": [],
      "name": "name",
      "outputs": [
        {
          "internalType": "string",
          "name": "",
          "type": "string"
        }
      ],
      "stateMutability": "view",
      "type": "function",
      "constant": true
    },
    {
      "inputs": [],
      "name": "owner",
      "outputs": [
        {
          "internalType": "address",
          "name": "",
          "type": "address"
        }
      ],
      "stateMutability": "view",
      "type": "function",
      "constant": true
    },
    {
      "inputs": [
        {
          "internalType": "uint256",
          "name": "tokenId",
          "type": "uint256"
        }
      ],
      "name": "ownerOf",
      "outputs": [
        {
          "internalType": "address",
          "name": "",
          "type": "address"
        }
      ],
      "stateMutability": "view",
      "type": "function",
      "constant": true
    },
    {
      "inputs": [],
      "name": "renounceOwnership",
      "outputs": [],
      "stateMutability": "nonpayable",
      "type": "function"
    },
    {
      "inputs": [
        {
          "internalType": "address",
          "name": "from",
          "type": "address"
        },
        {
          "internalType": "address",
          "name": "to",
          "type": "address"
        },
        {
          "internalType": "uint256",
          "name": "tokenId",
          "type": "uint256"
        }
      ],
      "name": "safeTransferFrom",
      "outputs": [],
      "stateMutability": "nonpayable",
      "type": "function"
    },
    {
      "inputs": [
        {
          "internalType": "address",
          "name": "from",
          "type": "address"
        },
        {
          "internalType": "address",
          "name": "to",
          "type": "address"
        },
        {
          "internalType": "uint256",
          "name": "tokenId",
          "type": "uint256"
        },
        {
          "internalType": "bytes",
          "name": "data",
          "type": "bytes"
        }
      ],
      "name": "safeTransferFrom",
      "outputs": [],
      "stateMutability": "nonpayable",
      "type": "function"
    },
    {
      "inputs": [
        {
          "internalType": "address",
          "name": "operator",
          "type": "address"
        },
        {
          "internalType": "bool",
          "name": "approved",
          "type": "bool"
        }
      ],
      "name": "setApprovalForAll",
      "outputs": [],
      "stateMutability": "nonpayable",
      "type": "function"
    },
    {
      "inputs": [
        {
          "internalType": "bytes4",
          "name": "interfaceId",
          "type": "bytes4"
        }
      ],
      "name": "supportsInterface",
      "outputs": [
        {
          "internalType": "bool",
          "name": "",
          "type": "bool"
        }
      ],
      "stateMutability": "view",
      "type": "function",
      "constant": true
    },
    {
      "inputs": [],
      "name": "symbol",
      "outputs": [
        {
          "internalType": "string",
          "name": "",
          "type": "string"
        }
      ],
      "stateMutability": "view",
      "type": "function",
      "constant": true
    },
    {
      "inputs": [
        {
          "internalType": "uint256",
          "name": "tokenId",
          "type": "uint256"
        }
      ],
      "name": "tokenURI",
      "outputs": [
        {
          "internalType": "string",
          "name": "",
          "type": "string"
        }
      ],
      "stateMutability": "view",
      "type": "function",
      "constant": true
    },
    {
      "inputs": [
        {
          "internalType": "address",
          "name": "from",
          "type": "address"
        },
        {
          "internalType": "address",
          "name": "to",
          "type": "address"
        },
        {
          "internalType": "uint256",
          "name": "tokenId",
          "type": "uint256"
        }
      ],
      "name": "transferFrom",
      "outputs": [],
      "stateMutability": "nonpayable",
      "type": "function"
    },
    {
      "inputs": [
        {
          "internalType": "address",
          "name": "newOwner",
          "type": "address"
        }
      ],
      "name": "transferOwnership",
      "outputs": [],
      "stateMutability": "nonpayable",
      "type": "function"
    },
    {
      "inputs": [
        {
          "internalType": "address",
          "name": "recipient",
          "type": "address"
        },
        {
          "internalType": "string",
          "name": "tokenURI",
          "type": "string"
        }
      ],
      "name": "mintNFT",
      "outputs": [
        {
          "internalType": "uint256",
          "name": "",
          "type": "uint256"
        }
      ],
      "stateMutability": "nonpayable",
      "type": "function"
    }
  ],
  "bytecode": "0x60806040523480156200001157600080fd5b506040518060400160405280600581526020017f4d794e46540000000000000000000000000000000000000000000000000000008152506040518060400160405280600381526020017f4e46540000000000000000000000000000000000000000000000000000000000815250816000908051906020019062000096929190620001a6565b508060019080519060200190620000af929190620001a6565b505050620000d2620000c6620000d860201b60201c565b620000e060201b60201c565b620002bb565b600033905090565b6000600760009054906101000a900473ffffffffffffffffffffffffffffffffffffffff16905081600760006101000a81548173ffffffffffffffffffffffffffffffffffffffff021916908373ffffffffffffffffffffffffffffffffffffffff1602179055508173ffffffffffffffffffffffffffffffffffffffff168173ffffffffffffffffffffffffffffffffffffffff167f8be0079c531659141344cd1fd0a4f28419497f9722a3daafe3b4186f6b6457e060405160405180910390a35050565b828054620001b49062000256565b90600052602060002090601f016020900481019282620001d8576000855562000224565b82601f10620001f357805160ff191683800117855562000224565b8280016001018555821562000224579182015b828111156200022357825182559160200191906001019062000206565b5b50905062000233919062000237565b5090565b5b808211156200025257600081600090555060010162000238565b5090565b600060028204905060018216806200026f57607f821691505b602082108114156200028657620002856200028c565b5b50919050565b7f4e487b7100000000000000000000000000000000000000000000000000000000600052602260045260246000fd5b612c1980620002cb6000396000f3fe608060405234801561001057600080fd5b506004361061010b5760003560e01c8063715018a6116100a2578063b88d4fde11610071578063b88d4fde146102a4578063c87b56dd146102c0578063e985e9c5146102f0578063eacabe1414610320578063f2fde38b146103505761010b565b8063715018a6146102425780638da5cb5b1461024c57806395d89b411461026a578063a22cb465146102885761010b565b806323b872dd116100de57806323b872dd146101aa57806342842e0e146101c65780636352211e146101e257806370a08231146102125761010b565b806301ffc9a71461011057806306fdde0314610140578063081812fc1461015e578063095ea7b31461018e575b600080fd5b61012a60048036038101906101259190611de7565b61036c565b60405161013791906121b3565b60405180910390f35b61014861044e565b60405161015591906121ce565b60405180910390f35b61017860048036038101906101739190611e41565b6104e0565b604051610185919061214c565b60405180910390f35b6101a860048036038101906101a39190611da7565b610526565b005b6101c460048036038101906101bf9190611c35565b61063e565b005b6101e060048036038101906101db9190611c35565b61069e565b005b6101fc60048036038101906101f79190611e41565b6106be565b604051610209919061214c565b60405180910390f35b61022c60048036038101906102279190611bc8565b610770565b60405161023991906123b0565b60405180910390f35b61024a610828565b005b61025461083c565b604051610261919061214c565b60405180910390f35b610272610866565b60405161027f91906121ce565b60405180910390f35b6102a2600480360381019061029d9190611d0b565b6108f8565b005b6102be60048036038101906102b99190611c88565b61090e565b005b6102da60048036038101906102d59190611e41565b610970565b6040516102e791906121ce565b60405180910390f35b61030a60048036038101906103059190611bf5565b610a83565b60405161031791906121b3565b60405180910390f35b61033a60048036038101906103359190611d4b565b610b17565b60405161034791906123b0565b60405180910390f35b61036a60048036038101906103659190611bc8565b610b57565b005b60007f80ac58cd000000000000000000000000000000000000000000000000000000007bffffffffffffffffffffffffffffffffffffffffffffffffffffffff1916827bffffffffffffffffffffffffffffffffffffffffffffffffffffffff1916148061043757507f5b5e139f000000000000000000000000000000000000000000000000000000007bffffffffffffffffffffffffffffffffffffffffffffffffffffffff1916827bffffffffffffffffffffffffffffffffffffffffffffffffffffffff1916145b80610447575061044682610bdb565b5b9050919050565b60606000805461045d90612606565b80601f016020809104026020016040519081016040528092919081815260200182805461048990612606565b80156104d65780601f106104ab576101008083540402835291602001916104d6565b820191906000526020600020905b8154815290600101906020018083116104b957829003601f168201915b5050505050905090565b60006104eb82610c45565b6004600083815260200190815260200160002060009054906101000a900473ffffffffffffffffffffffffffffffffffffffff169050919050565b6000610531826106be565b90508073ffffffffffffffffffffffffffffffffffffffff168373ffffffffffffffffffffffffffffffffffffffff1614156105a2576040517f08c379a000000000000000000000000000000000000000000000000000000000815260040161059990612370565b60405180910390fd5b8073ffffffffffffffffffffffffffffffffffffffff166105c1610c90565b73ffffffffffffffffffffffffffffffffffffffff1614806105f057506105ef816105ea610c90565b610a83565b5b61062f576040517f08c379a0000000000000000000000000000000000000000000000000000000008152600401610626906122f0565b60405180910390fd5b6106398383610c98565b505050565b61064f610649610c90565b82610d51565b61068e576040517f08c379a000000000000000000000000000000000000000000000000000000000815260040161068590612390565b60405180910390fd5b610699838383610de6565b505050565b6106b98383836040518060200160405280600081525061090e565b505050565b6000806002600084815260200190815260200160002060009054906101000a900473ffffffffffffffffffffffffffffffffffffffff169050600073ffffffffffffffffffffffffffffffffffffffff168173ffffffffffffffffffffffffffffffffffffffff161415610767576040517f08c379a000000000000000000000000000000000000000000000000000000000815260040161075e90612350565b60405180910390fd5b80915050919050565b60008073ffffffffffffffffffffffffffffffffffffffff168273ffffffffffffffffffffffffffffffffffffffff1614156107e1576040517f08c379a00000000000000000000000000000000000000000000000000000000081526004016107d8906122b0565b60405180910390fd5b600360008373ffffffffffffffffffffffffffffffffffffffff1673ffffffffffffffffffffffffffffffffffffffff168152602001908152602001600020549050919050565b61083061104d565b61083a60006110cb565b565b6000600760009054906101000a900473ffffffffffffffffffffffffffffffffffffffff16905090565b60606001805461087590612606565b80601f01602080910402602001604051908101604052809291908181526020018280546108a190612606565b80156108ee5780601f106108c3576101008083540402835291602001916108ee565b820191906000526020600020905b8154815290600101906020018083116108d157829003601f168201915b5050505050905090565b61090a610903610c90565b8383611191565b5050565b61091f610919610c90565b83610d51565b61095e576040517f08c379a000000000000000000000000000000000000000000000000000000000815260040161095590612390565b60405180910390fd5b61096a848484846112fe565b50505050565b606061097b82610c45565b600060066000848152602001908152602001600020805461099b90612606565b80601f01602080910402602001604051908101604052809291908181526020018280546109c790612606565b8015610a145780601f106109e957610100808354040283529160200191610a14565b820191906000526020600020905b8154815290600101906020018083116109f757829003601f168201915b505050505090506000610a2561135a565b9050600081511415610a3b578192505050610a7e565b600082511115610a70578082604051602001610a58929190612128565b60405160208183030381529060405292505050610a7e565b610a7984611371565b925050505b919050565b6000600560008473ffffffffffffffffffffffffffffffffffffffff1673ffffffffffffffffffffffffffffffffffffffff16815260200190815260200160002060008373ffffffffffffffffffffffffffffffffffffffff1673ffffffffffffffffffffffffffffffffffffffff16815260200190815260200160002060009054906101000a900460ff16905092915050565b6000610b2161104d565b610b2b60086113d9565b6000610b3760086113ef565b9050610b4384826113fd565b610b4d81846115d7565b8091505092915050565b610b5f61104d565b600073ffffffffffffffffffffffffffffffffffffffff168173ffffffffffffffffffffffffffffffffffffffff161415610bcf576040517f08c379a0000000000000000000000000000000000000000000000000000000008152600401610bc690612210565b60405180910390fd5b610bd8816110cb565b50565b60007f01ffc9a7000000000000000000000000000000000000000000000000000000007bffffffffffffffffffffffffffffffffffffffffffffffffffffffff1916827bffffffffffffffffffffffffffffffffffffffffffffffffffffffff1916149050919050565b610c4e8161164b565b610c8d576040517f08c379a0000000000000000000000000000000000000000000000000000000008152600401610c8490612350565b60405180910390fd5b50565b600033905090565b816004600083815260200190815260200160002060006101000a81548173ffffffffffffffffffffffffffffffffffffffff021916908373ffffffffffffffffffffffffffffffffffffffff160217905550808273ffffffffffffffffffffffffffffffffffffffff16610d0b836106be565b73ffffffffffffffffffffffffffffffffffffffff167f8c5be1e5ebec7d5bd14f71427d1e84f3dd0314c0f7b2291e5b200ac8c7c3b92560405160405180910390a45050565b600080610d5d836106be565b90508073ffffffffffffffffffffffffffffffffffffffff168473ffffffffffffffffffffffffffffffffffffffff161480610d9f5750610d9e8185610a83565b5b80610ddd57508373ffffffffffffffffffffffffffffffffffffffff16610dc5846104e0565b73ffffffffffffffffffffffffffffffffffffffff16145b91505092915050565b8273ffffffffffffffffffffffffffffffffffffffff16610e06826106be565b73ffffffffffffffffffffffffffffffffffffffff1614610e5c576040517f08c379a0000000000000000000000000000000000000000000000000000000008152600401610e5390612230565b60405180910390fd5b600073ffffffffffffffffffffffffffffffffffffffff168273ffffffffffffffffffffffffffffffffffffffff161415610ecc576040517f08c379a0000000000000000000000000000000000000000000000000000000008152600401610ec390612270565b60405180910390fd5b610ed78383836116b7565b610ee2600082610c98565b6001600360008573ffffffffffffffffffffffffffffffffffffffff1673ffffffffffffffffffffffffffffffffffffffff1681526020019081526020016000206000828254610f32919061251c565b925050819055506001600360008473ffffffffffffffffffffffffffffffffffffffff1673ffffffffffffffffffffffffffffffffffffffff1681526020019081526020016000206000828254610f899190612495565b92505081905550816002600083815260200190815260200160002060006101000a81548173ffffffffffffffffffffffffffffffffffffffff021916908373ffffffffffffffffffffffffffffffffffffffff160217905550808273ffffffffffffffffffffffffffffffffffffffff168473ffffffffffffffffffffffffffffffffffffffff167fddf252ad1be2c89b69c2b068fc378daa952ba7f163c4a11628f55a4df523b3ef60405160405180910390a46110488383836116bc565b505050565b611055610c90565b73ffffffffffffffffffffffffffffffffffffffff1661107361083c565b73ffffffffffffffffffffffffffffffffffffffff16146110c9576040517f08c379a00000000000000000000000000000000000000000000000000000000081526004016110c090612330565b60405180910390fd5b565b6000600760009054906101000a900473ffffffffffffffffffffffffffffffffffffffff16905081600760006101000a81548173ffffffffffffffffffffffffffffffffffffffff021916908373ffffffffffffffffffffffffffffffffffffffff1602179055508173ffffffffffffffffffffffffffffffffffffffff168173ffffffffffffffffffffffffffffffffffffffff167f8be0079c531659141344cd1fd0a4f28419497f9722a3daafe3b4186f6b6457e060405160405180910390a35050565b8173ffffffffffffffffffffffffffffffffffffffff168373ffffffffffffffffffffffffffffffffffffffff161415611200576040517f08c379a00000000000000000000000000000000000000000000000000000000081526004016111f790612290565b60405180910390fd5b80600560008573ffffffffffffffffffffffffffffffffffffffff1673ffffffffffffffffffffffffffffffffffffffff16815260200190815260200160002060008473ffffffffffffffffffffffffffffffffffffffff1673ffffffffffffffffffffffffffffffffffffffff16815260200190815260200160002060006101000a81548160ff0219169083151502179055508173ffffffffffffffffffffffffffffffffffffffff168373ffffffffffffffffffffffffffffffffffffffff167f17307eab39ab6107e8899845ad3d59bd9653f200f220920489ca2b5937696c31836040516112f191906121b3565b60405180910390a3505050565b611309848484610de6565b611315848484846116c1565b611354576040517f08c379a000000000000000000000000000000000000000000000000000000000815260040161134b906121f0565b60405180910390fd5b50505050565b606060405180602001604052806000815250905090565b606061137c82610c45565b600061138661135a565b905060008151116113a657604051806020016040528060008152506113d1565b806113b084611858565b6040516020016113c1929190612128565b6040516020818303038152906040525b915050919050565b6001816000016000828254019250508190555050565b600081600001549050919050565b600073ffffffffffffffffffffffffffffffffffffffff168273ffffffffffffffffffffffffffffffffffffffff16141561146d576040517f08c379a000000000000000000000000000000000000000000000000000000000815260040161146490612310565b60405180910390fd5b6114768161164b565b156114b6576040517f08c379a00000000000000000000000000000000000000000000000000000000081526004016114ad90612250565b60405180910390fd5b6114c2600083836116b7565b6001600360008473ffffffffffffffffffffffffffffffffffffffff1673ffffffffffffffffffffffffffffffffffffffff16815260200190815260200160002060008282546115129190612495565b92505081905550816002600083815260200190815260200160002060006101000a81548173ffffffffffffffffffffffffffffffffffffffff021916908373ffffffffffffffffffffffffffffffffffffffff160217905550808273ffffffffffffffffffffffffffffffffffffffff16600073ffffffffffffffffffffffffffffffffffffffff167fddf252ad1be2c89b69c2b068fc378daa952ba7f163c4a11628f55a4df523b3ef60405160405180910390a46115d3600083836116bc565b5050565b6115e08261164b565b61161f576040517f08c379a0000000000000000000000000000000000000000000000000000000008152600401611616906122d0565b60405180910390fd5b806006600084815260200190815260200160002090805190602001906116469291906119dc565b505050565b60008073ffffffffffffffffffffffffffffffffffffffff166002600084815260200190815260200160002060009054906101000a900473ffffffffffffffffffffffffffffffffffffffff1673ffffffffffffffffffffffffffffffffffffffff1614159050919050565b505050565b505050565b60006116e28473ffffffffffffffffffffffffffffffffffffffff166119b9565b1561184b578373ffffffffffffffffffffffffffffffffffffffff1663150b7a0261170b610c90565b8786866040518563ffffffff1660e01b815260040161172d9493929190612167565b602060405180830381600087803b15801561174757600080fd5b505af192505050801561177857506040513d601f19601f820116820180604052508101906117759190611e14565b60015b6117fb573d80600081146117a8576040519150601f19603f3d011682016040523d82523d6000602084013e6117ad565b606091505b506000815114156117f3576040517f08c379a00000000000000000000000000000000000000000000000000000000081526004016117ea906121f0565b60405180910390fd5b805181602001fd5b63150b7a0260e01b7bffffffffffffffffffffffffffffffffffffffffffffffffffffffff1916817bffffffffffffffffffffffffffffffffffffffffffffffffffffffff191614915050611850565b600190505b949350505050565b606060008214156118a0576040518060400160405280600181526020017f300000000000000000000000000000000000000000000000000000000000000081525090506119b4565b600082905060005b600082146118d25780806118bb90612669565b915050600a826118cb91906124eb565b91506118a8565b60008167ffffffffffffffff8111156118ee576118ed61279f565b5b6040519080825280601f01601f1916602001820160405280156119205781602001600182028036833780820191505090505b5090505b600085146119ad57600182611939919061251c565b9150600a8561194891906126b2565b60306119549190612495565b60f81b81838151811061196a57611969612770565b5b60200101907effffffffffffffffffffffffffffffffffffffffffffffffffffffffffffff1916908160001a905350600a856119a691906124eb565b9450611924565b8093505050505b919050565b6000808273ffffffffffffffffffffffffffffffffffffffff163b119050919050565b8280546119e890612606565b90600052602060002090601f016020900481019282611a0a5760008555611a51565b82601f10611a2357805160ff1916838001178555611a51565b82800160010185558215611a51579182015b82811115611a50578251825591602001919060010190611a35565b5b509050611a5e9190611a62565b5090565b5b80821115611a7b576000816000905550600101611a63565b5090565b6000611a92611a8d846123f0565b6123cb565b905082815260208101848484011115611aae57611aad6127d3565b5b611ab98482856125c4565b509392505050565b6000611ad4611acf84612421565b6123cb565b905082815260208101848484011115611af057611aef6127d3565b5b611afb8482856125c4565b509392505050565b600081359050611b1281612b87565b92915050565b600081359050611b2781612b9e565b92915050565b600081359050611b3c81612bb5565b92915050565b600081519050611b5181612bb5565b92915050565b600082601f830112611b6c57611b6b6127ce565b5b8135611b7c848260208601611a7f565b91505092915050565b600082601f830112611b9a57611b996127ce565b5b8135611baa848260208601611ac1565b91505092915050565b600081359050611bc281612bcc565b92915050565b600060208284031215611bde57611bdd6127dd565b5b6000611bec84828501611b03565b91505092915050565b60008060408385031215611c0c57611c0b6127dd565b5b6000611c1a85828601611b03565b9250506020611c2b85828601611b03565b9150509250929050565b600080600060608486031215611c4e57611c4d6127dd565b5b6000611c5c86828701611b03565b9350506020611c6d86828701611b03565b9250506040611c7e86828701611bb3565b9150509250925092565b60008060008060808587031215611ca257611ca16127dd565b5b6000611cb087828801611b03565b9450506020611cc187828801611b03565b9350506040611cd287828801611bb3565b925050606085013567ffffffffffffffff811115611cf357611cf26127d8565b5b611cff87828801611b57565b91505092959194509250565b60008060408385031215611d2257611d216127dd565b5b6000611d3085828601611b03565b9250506020611d4185828601611b18565b9150509250929050565b60008060408385031215611d6257611d616127dd565b5b6000611d7085828601611b03565b925050602083013567ffffffffffffffff811115611d9157611d906127d8565b5b611d9d85828601611b85565b9150509250929050565b60008060408385031215611dbe57611dbd6127dd565b5b6000611dcc85828601611b03565b9250506020611ddd85828601611bb3565b9150509250929050565b600060208284031215611dfd57611dfc6127dd565b5b6000611e0b84828501611b2d565b91505092915050565b600060208284031215611e2a57611e296127dd565b5b6000611e3884828501611b42565b91505092915050565b600060208284031215611e5757611e566127dd565b5b6000611e6584828501611bb3565b91505092915050565b611e7781612550565b82525050565b611e8681612562565b82525050565b6000611e9782612452565b611ea18185612468565b9350611eb18185602086016125d3565b611eba816127e2565b840191505092915050565b6000611ed08261245d565b611eda8185612479565b9350611eea8185602086016125d3565b611ef3816127e2565b840191505092915050565b6000611f098261245d565b611f13818561248a565b9350611f238185602086016125d3565b80840191505092915050565b6000611f3c603283612479565b9150611f47826127f3565b604082019050919050565b6000611f5f602683612479565b9150611f6a82612842565b604082019050919050565b6000611f82602583612479565b9150611f8d82612891565b604082019050919050565b6000611fa5601c83612479565b9150611fb0826128e0565b602082019050919050565b6000611fc8602483612479565b9150611fd382612909565b604082019050919050565b6000611feb601983612479565b9150611ff682612958565b602082019050919050565b600061200e602983612479565b915061201982612981565b604082019050919050565b6000612031602e83612479565b915061203c826129d0565b604082019050919050565b6000612054603e83612479565b915061205f82612a1f565b604082019050919050565b6000612077602083612479565b915061208282612a6e565b602082019050919050565b600061209a602083612479565b91506120a582612a97565b602082019050919050565b60006120bd601883612479565b91506120c882612ac0565b602082019050919050565b60006120e0602183612479565b91506120eb82612ae9565b604082019050919050565b6000612103602e83612479565b915061210e82612b38565b604082019050919050565b612122816125ba565b82525050565b60006121348285611efe565b91506121408284611efe565b91508190509392505050565b60006020820190506121616000830184611e6e565b92915050565b600060808201905061217c6000830187611e6e565b6121896020830186611e6e565b6121966040830185612119565b81810360608301526121a88184611e8c565b905095945050505050565b60006020820190506121c86000830184611e7d565b92915050565b600060208201905081810360008301526121e88184611ec5565b905092915050565b6000602082019050818103600083015261220981611f2f565b9050919050565b6000602082019050818103600083015261222981611f52565b9050919050565b6000602082019050818103600083015261224981611f75565b9050919050565b6000602082019050818103600083015261226981611f98565b9050919050565b6000602082019050818103600083015261228981611fbb565b9050919050565b600060208201905081810360008301526122a981611fde565b9050919050565b600060208201905081810360008301526122c981612001565b9050919050565b600060208201905081810360008301526122e981612024565b9050919050565b6000602082019050818103600083015261230981612047565b9050919050565b600060208201905081810360008301526123298161206a565b9050919050565b600060208201905081810360008301526123498161208d565b9050919050565b60006020820190508181036000830152612369816120b0565b9050919050565b60006020820190508181036000830152612389816120d3565b9050919050565b600060208201905081810360008301526123a9816120f6565b9050919050565b60006020820190506123c56000830184612119565b92915050565b60006123d56123e6565b90506123e18282612638565b919050565b6000604051905090565b600067ffffffffffffffff82111561240b5761240a61279f565b5b612414826127e2565b9050602081019050919050565b600067ffffffffffffffff82111561243c5761243b61279f565b5b612445826127e2565b9050602081019050919050565b600081519050919050565b600081519050919050565b600082825260208201905092915050565b600082825260208201905092915050565b600081905092915050565b60006124a0826125ba565b91506124ab836125ba565b9250827fffffffffffffffffffffffffffffffffffffffffffffffffffffffffffffffff038211156124e0576124df6126e3565b5b828201905092915050565b60006124f6826125ba565b9150612501836125ba565b92508261251157612510612712565b5b828204905092915050565b6000612527826125ba565b9150612532836125ba565b925082821015612545576125446126e3565b5b828203905092915050565b600061255b8261259a565b9050919050565b60008115159050919050565b60007fffffffff0000000000000000000000000000000000000000000000000000000082169050919050565b600073ffffffffffffffffffffffffffffffffffffffff82169050919050565b6000819050919050565b82818337600083830152505050565b60005b838110156125f15780820151818401526020810190506125d6565b83811115612600576000848401525b50505050565b6000600282049050600182168061261e57607f821691505b6020821081141561263257612631612741565b5b50919050565b612641826127e2565b810181811067ffffffffffffffff821117156126605761265f61279f565b5b80604052505050565b6000612674826125ba565b91507fffffffffffffffffffffffffffffffffffffffffffffffffffffffffffffffff8214156126a7576126a66126e3565b5b600182019050919050565b60006126bd826125ba565b91506126c8836125ba565b9250826126d8576126d7612712565b5b828206905092915050565b7f4e487b7100000000000000000000000000000000000000000000000000000000600052601160045260246000fd5b7f4e487b7100000000000000000000000000000000000000000000000000000000600052601260045260246000fd5b7f4e487b7100000000000000000000000000000000000000000000000000000000600052602260045260246000fd5b7f4e487b7100000000000000000000000000000000000000000000000000000000600052603260045260246000fd5b7f4e487b7100000000000000000000000000000000000000000000000000000000600052604160045260246000fd5b600080fd5b600080fd5b600080fd5b600080fd5b6000601f19601f8301169050919050565b7f4552433732313a207472616e7366657220746f206e6f6e20455243373231526560008201527f63656976657220696d706c656d656e7465720000000000000000000000000000602082015250565b7f4f776e61626c653a206e6577206f776e657220697320746865207a65726f206160008201527f6464726573730000000000000000000000000000000000000000000000000000602082015250565b7f4552433732313a207472616e736665722066726f6d20696e636f72726563742060008201527f6f776e6572000000000000000000000000000000000000000000000000000000602082015250565b7f4552433732313a20746f6b656e20616c7265616479206d696e74656400000000600082015250565b7f4552433732313a207472616e7366657220746f20746865207a65726f2061646460008201527f7265737300000000000000000000000000000000000000000000000000000000602082015250565b7f4552433732313a20617070726f766520746f2063616c6c657200000000000000600082015250565b7f4552433732313a2061646472657373207a65726f206973206e6f74206120766160008201527f6c6964206f776e65720000000000000000000000000000000000000000000000602082015250565b7f45524337323155524953746f726167653a2055524920736574206f66206e6f6e60008201527f6578697374656e7420746f6b656e000000000000000000000000000000000000602082015250565b7f4552433732313a20617070726f76652063616c6c6572206973206e6f7420746f60008201527f6b656e206f776e6572206e6f7220617070726f76656420666f7220616c6c0000602082015250565b7f4552433732313a206d696e7420746f20746865207a65726f2061646472657373600082015250565b7f4f776e61626c653a2063616c6c6572206973206e6f7420746865206f776e6572600082015250565b7f4552433732313a20696e76616c696420746f6b656e2049440000000000000000600082015250565b7f4552433732313a20617070726f76616c20746f2063757272656e74206f776e6560008201527f7200000000000000000000000000000000000000000000000000000000000000602082015250565b7f4552433732313a2063616c6c6572206973206e6f7420746f6b656e206f776e6560008201527f72206e6f7220617070726f766564000000000000000000000000000000000000602082015250565b612b9081612550565b8114612b9b57600080fd5b50565b612ba781612562565b8114612bb257600080fd5b50565b612bbe8161256e565b8114612bc957600080fd5b50565b612bd5816125ba565b8114612be057600080fd5b5056fea2646970667358221220f76c805c4ab055a46b22d969c5b562bdff0fb8414b1da7b4052bf9149a3d04fb64736f6c63430008060033",
  "immutableReferences": {},
  "source": "//Contract based on [https://docs.openzeppelin.com/contracts/3.x/erc721](https://docs.openzeppelin.com/contracts/3.x/erc721)\n// SPDX-License-Identifier: MIT\npragma solidity ^0.8.6;\n\nimport \"../node_modules/@openzeppelin/contracts/token/ERC721/ERC721.sol\";\nimport \"../node_modules/@openzeppelin/contracts/utils/Counters.sol\";\nimport \"../node_modules/@openzeppelin/contracts/access/Ownable.sol\";\nimport \"../node_modules/@openzeppelin/contracts/token/ERC721/extensions/ERC721URIStorage.sol\";\n\ncontract MyNFT is ERC721URIStorage, Ownable {\n    using Counters for Counters.Counter;\n    Counters.Counter private _tokenIds;\n\n    constructor() ERC721(\"MyNFT\", \"NFT\") {}\n\n    function mintNFT(address recipient, string memory tokenURI)\n        public onlyOwner\n        returns (uint256)\n    {\n        _tokenIds.increment();\n\n        uint256 newItemId = _tokenIds.current();\n        _mint(recipient, newItemId);\n        _setTokenURI(newItemId, tokenURI);\n\n        return newItemId;\n    }\n}",
  "sourcePath": "/Users/dj/Desktop/5Node/web3-test/ethers-test/truffle/contracts/MyNFT.sol",
  "compiler": {
    "name": "solc",
    "version": "0.8.6+commit.11564f7e.Emscripten.clang"
  },
  "schemaVersion": "3.4.6",
  "updatedAt": "2022-07-05T13:55:40.528Z",
  "networkType": "ethereum",
  "devdoc": {
    "kind": "dev",
    "methods": {
      "approve(address,uint256)": {
        "details": "See {IERC721-approve}."
      },
      "balanceOf(address)": {
        "details": "See {IERC721-balanceOf}."
      },
      "getApproved(uint256)": {
        "details": "See {IERC721-getApproved}."
      },
      "isApprovedForAll(address,address)": {
        "details": "See {IERC721-isApprovedForAll}."
      },
      "name()": {
        "details": "See {IERC721Metadata-name}."
      },
      "owner()": {
        "details": "Returns the address of the current owner."
      },
      "ownerOf(uint256)": {
        "details": "See {IERC721-ownerOf}."
      },
      "renounceOwnership()": {
        "details": "Leaves the contract without owner. It will not be possible to call `onlyOwner` functions anymore. Can only be called by the current owner. NOTE: Renouncing ownership will leave the contract without an owner, thereby removing any functionality that is only available to the owner."
      },
      "safeTransferFrom(address,address,uint256)": {
        "details": "See {IERC721-safeTransferFrom}."
      },
      "safeTransferFrom(address,address,uint256,bytes)": {
        "details": "See {IERC721-safeTransferFrom}."
      },
      "setApprovalForAll(address,bool)": {
        "details": "See {IERC721-setApprovalForAll}."
      },
      "supportsInterface(bytes4)": {
        "details": "See {IERC165-supportsInterface}."
      },
      "symbol()": {
        "details": "See {IERC721Metadata-symbol}."
      },
      "tokenURI(uint256)": {
        "details": "See {IERC721Metadata-tokenURI}."
      },
      "transferFrom(address,address,uint256)": {
        "details": "See {IERC721-transferFrom}."
      },
      "transferOwnership(address)": {
        "details": "Transfers ownership of the contract to a new account (`newOwner`). Can only be called by the current owner."
      }
    },
    "version": 1
  },
  "userdoc": {
    "kind": "user",
    "methods": {},
    "version": 1
  }
}